{
  "_format": "hh-sol-artifact-1",
  "contractName": "BorrowRequest",
  "sourceName": "contracts/borrowRequest.sol",
  "abi": [
    {
      "inputs": [],
      "stateMutability": "nonpayable",
      "type": "constructor"
    },
    {
      "inputs": [
        {
          "internalType": "address",
          "name": "p",
          "type": "address"
        }
      ],
      "name": "addParent",
      "outputs": [],
      "stateMutability": "nonpayable",
      "type": "function"
    },
    {
      "inputs": [
        {
          "internalType": "bool",
          "name": "approved",
          "type": "bool"
        }
      ],
      "name": "approveLoan",
      "outputs": [],
      "stateMutability": "nonpayable",
      "type": "function"
    },
    {
      "inputs": [
        {
          "internalType": "uint256",
          "name": "value",
          "type": "uint256"
        }
      ],
      "name": "askForMoney",
      "outputs": [],
      "stateMutability": "nonpayable",
      "type": "function"
    },
    {
      "inputs": [],
      "name": "child",
      "outputs": [
        {
          "internalType": "address",
          "name": "",
          "type": "address"
        }
      ],
      "stateMutability": "view",
      "type": "function"
    },
    {
      "inputs": [
        {
          "internalType": "uint256",
          "name": "totalVal",
          "type": "uint256"
        },
        {
          "internalType": "uint256",
          "name": "date",
          "type": "uint256"
        },
        {
          "internalType": "uint256",
          "name": "rate",
          "type": "uint256"
        },
        {
          "internalType": "uint256",
          "name": "recurringVal",
          "type": "uint256"
        }
      ],
      "name": "createLoan",
      "outputs": [],
      "stateMutability": "payable",
      "type": "function"
    },
    {
      "inputs": [],
      "name": "forfietFunds",
      "outputs": [],
      "stateMutability": "payable",
      "type": "function"
    },
    {
      "inputs": [],
      "name": "loan",
      "outputs": [
        {
          "internalType": "uint256",
          "name": "totalBalance",
          "type": "uint256"
        },
        {
          "internalType": "uint256",
          "name": "remainingDebt",
          "type": "uint256"
        },
        {
          "internalType": "uint256",
          "name": "payBackDate",
          "type": "uint256"
        },
        {
          "internalType": "uint256",
          "name": "interestRate",
          "type": "uint256"
        },
        {
          "internalType": "uint256",
          "name": "payment",
          "type": "uint256"
        },
        {
          "internalType": "address",
          "name": "lender",
          "type": "address"
        },
        {
          "internalType": "address",
          "name": "borrower",
          "type": "address"
        }
      ],
      "stateMutability": "view",
      "type": "function"
    },
    {
      "inputs": [],
      "name": "parent",
      "outputs": [
        {
          "internalType": "address",
          "name": "",
          "type": "address"
        }
      ],
      "stateMutability": "view",
      "type": "function"
    },
    {
      "inputs": [],
      "name": "parentApproved",
      "outputs": [
        {
          "internalType": "bool",
          "name": "",
          "type": "bool"
        }
      ],
      "stateMutability": "view",
      "type": "function"
    },
    {
      "inputs": [],
      "name": "payBackLoan",
      "outputs": [],
      "stateMutability": "payable",
      "type": "function"
    },
    {
      "inputs": [],
      "name": "proposedAmount",
      "outputs": [
        {
          "internalType": "uint256",
          "name": "",
          "type": "uint256"
        }
      ],
      "stateMutability": "view",
      "type": "function"
    }
  ],
  "bytecode": "0x60806040526000600b5534801561001557600080fd5b5033600160006101000a81548173ffffffffffffffffffffffffffffffffffffffff021916908373ffffffffffffffffffffffffffffffffffffffff1602179055506109f9806100666000396000f3fe60806040526004361061009c5760003560e01c80639a22bbb4116100645780639a22bbb414610157578063acf36e5314610180578063b9fae650146101a9578063ccdbbee1146101c5578063d285b7b4146101cf578063ec89ef42146102005761009c565b8063237b5e96146100a157806333013c04146100cc5780634e9e8e73146100d65780635e33d74f1461010157806360f96a8f1461012c575b600080fd5b3480156100ad57600080fd5b506100b6610229565b6040516100c391906106f5565b60405180910390f35b6100d461024f565b005b3480156100e257600080fd5b506100eb6102e2565b6040516100f89190610729565b60405180910390f35b34801561010d57600080fd5b506101166102e8565b604051610123919061075f565b60405180910390f35b34801561013857600080fd5b506101416102fb565b60405161014e91906106f5565b60405180910390f35b34801561016357600080fd5b5061017e600480360381019061017991906107ab565b61031f565b005b34801561018c57600080fd5b506101a760048036038101906101a29190610804565b610329565b005b6101c360048036038101906101be9190610831565b61036c565b005b6101cd61054c565b005b3480156101db57600080fd5b506101e46105cf565b6040516101f79796959493929190610898565b60405180910390f35b34801561020c57600080fd5b5061022760048036038101906102229190610933565b61063f565b005b600160009054906101000a900473ffffffffffffffffffffffffffffffffffffffff1681565b60046000015460046001015410801561026e5750600460020154600b54115b156102e05760008054906101000a900473ffffffffffffffffffffffffffffffffffffffff1673ffffffffffffffffffffffffffffffffffffffff166108fc6004600001549081150290604051600060405180830381858888f193505050501580156102de573d6000803e3d6000fd5b505b565b60025481565b600360009054906101000a900460ff1681565b60008054906101000a900473ffffffffffffffffffffffffffffffffffffffff1681565b8060028190555050565b806000806101000a81548173ffffffffffffffffffffffffffffffffffffffff021916908373ffffffffffffffffffffffffffffffffffffffff16021790555050565b60008054906101000a900473ffffffffffffffffffffffffffffffffffffffff1673ffffffffffffffffffffffffffffffffffffffff163373ffffffffffffffffffffffffffffffffffffffff16146103c457600080fd5b600360009054906101000a900460ff16156105465760006040518060e0016040528086815260200186815260200185815260200184815260200183815260200160008054906101000a900473ffffffffffffffffffffffffffffffffffffffff1673ffffffffffffffffffffffffffffffffffffffff168152602001600160009054906101000a900473ffffffffffffffffffffffffffffffffffffffff1673ffffffffffffffffffffffffffffffffffffffff168152509050806004600082015181600001556020820151816001015560408201518160020155606082015181600301556080820151816004015560a08201518160050160006101000a81548173ffffffffffffffffffffffffffffffffffffffff021916908373ffffffffffffffffffffffffffffffffffffffff16021790555060c08201518160060160006101000a81548173ffffffffffffffffffffffffffffffffffffffff021916908373ffffffffffffffffffffffffffffffffffffffff160217905550905050505b50505050565b600160009054906101000a900473ffffffffffffffffffffffffffffffffffffffff1673ffffffffffffffffffffffffffffffffffffffff163373ffffffffffffffffffffffffffffffffffffffff16146105a657600080fd5b600034116105b357600080fd5b346004600001546105c4919061098f565b600460010181905550565b60048060000154908060010154908060020154908060030154908060040154908060050160009054906101000a900473ffffffffffffffffffffffffffffffffffffffff16908060060160009054906101000a900473ffffffffffffffffffffffffffffffffffffffff16905087565b60008054906101000a900473ffffffffffffffffffffffffffffffffffffffff1673ffffffffffffffffffffffffffffffffffffffff163373ffffffffffffffffffffffffffffffffffffffff161461069757600080fd5b80600360006101000a81548160ff02191690831515021790555050565b600073ffffffffffffffffffffffffffffffffffffffff82169050919050565b60006106df826106b4565b9050919050565b6106ef816106d4565b82525050565b600060208201905061070a60008301846106e6565b92915050565b6000819050919050565b61072381610710565b82525050565b600060208201905061073e600083018461071a565b92915050565b60008115159050919050565b61075981610744565b82525050565b60006020820190506107746000830184610750565b92915050565b600080fd5b61078881610710565b811461079357600080fd5b50565b6000813590506107a58161077f565b92915050565b6000602082840312156107c1576107c061077a565b5b60006107cf84828501610796565b91505092915050565b6107e1816106d4565b81146107ec57600080fd5b50565b6000813590506107fe816107d8565b92915050565b60006020828403121561081a5761081961077a565b5b6000610828848285016107ef565b91505092915050565b6000806000806080858703121561084b5761084a61077a565b5b600061085987828801610796565b945050602061086a87828801610796565b935050604061087b87828801610796565b925050606061088c87828801610796565b91505092959194509250565b600060e0820190506108ad600083018a61071a565b6108ba602083018961071a565b6108c7604083018861071a565b6108d4606083018761071a565b6108e1608083018661071a565b6108ee60a08301856106e6565b6108fb60c08301846106e6565b98975050505050505050565b61091081610744565b811461091b57600080fd5b50565b60008135905061092d81610907565b92915050565b6000602082840312156109495761094861077a565b5b60006109578482850161091e565b91505092915050565b7f4e487b7100000000000000000000000000000000000000000000000000000000600052601160045260246000fd5b600061099a82610710565b91506109a583610710565b9250828210156109b8576109b7610960565b5b82820390509291505056fea2646970667358221220e51688095d5a865c93c1963d2e450307d59573f3c972aa2a5a0b0895f07af0ed64736f6c63430008090033",
  "linkReferences": {},
  "deployedLinkReferences": {}
}